:1000000000308A003C2C00008A1D0A128A190A1648
:100010008A11831A0F28A500030EA6001428831244
:10002000A500030EA600A614A50E0408A70020082C
:10003000A8002108A9002208AA002308AB00240870
:10004000AC0083128B1E26280B193C28270884003D
:100050002808A0002908A1002A08A2002B08A30054
:100060002C08A4000A1A8A150A12260E830083128D
:10007000250EA618831609008A11512842308400E3
:100080000008031950280630A100A001A00B462843
:10009000A10B45287730A000A00B4C28800B4328EB
:1000A0000034BC0B602883168610831286146430DB
:1000B000C2003E2083168610831286106430BC0076
:1000C0000B118A1126282D122D0867000712AD1179
:1000D0002D0867008711E830831689008312091103
:1000E000C030C0000430C1000130C20006304202FE
:1000F00003187F280310C00DC10DC20A7628E8300E
:1001000083168900831209150130C2000D304202A6
:1001100003189F280310C00DC10D03189128071262
:10012000922807162D122D086700AD112D086700C3
:100130008715AD112D0867008711C20A86282D1278
:100140002D0867000712E830831689008312091111
:100150008A11702CC4080319B6282D102D086700C9
:100160000714AD102D0867008710BE28AD102D08AC
:10017000670087142D102D0867000710E8308316DC
:100180008900831289108316851283128512FF302D
:100190008316880083120808C5008316851283120F
:1001A0008516E8308316890083128914AD102D0856
:1001B000670087142D102D08670007144508A1005B
:1001C00000344330840000080319EB28E9280000BC
:1001D0000000800BE72800344308C400AA2021084F
:1001E0000139A1000034C3080319FF282D102D0880
:1001F00067000714AD102D08670087100729AD10A0
:100200002D08670087142D102D0867000710E830AF
:1002100083168900831289100030831688008312A8
:1002200044088800E8308316890083120910831679
:100230008900831209148316890083128914AD1072
:100240002D08670087142D102D086700071400344F
:10025000C308031934292D102D0867000714AD10A9
:100260002D08670087103C29AD102D086700871402
:100270002D102D0867000710E830831689008312BF
:100280008914003083168800831244088800E830FF
:1002900083168900831209108316890083120914BA
:1002A000AD102D08670087142D102D086700071466
:1002B00000348316051183120511003483160511CD
:1002C0008312051500340130C300EC20A108031D82
:1002D00063290130C3001F30C400F3200130C30084
:1002E000EC20A108031D6E290130C300C4012821A0
:1002F0000130C3002A30C40028210130C300EC20A3
:10030000A108031D7D290130C300C401282101304B
:10031000C300C40128210130C300EC20A108031D43
:100320008B290130C300C40128210130C300C4015E
:1003300028210130C300EC20A108031D99290130B8
:10034000C300C40128210130C300C40128210130A9
:10035000C300EC20A108031DA7290130C300C4017C
:1003600028210130C300C40128210130C300EC2042
:10037000A108031DB5290130C300C40128210130A3
:10038000C300C40128210130C300EC20A108031DD3
:10039000C3290130C300C40128210130C300C401B6
:1003A00028210130C300EC20A108031DD129013010
:1003B000C300EC20A108031DD7290130C300C400ED
:1003C000F320C301EC20A108031DE129C3011F3064
:1003D000C400F320C301EC20A108031DEA29C301D6
:1003E000C4012821C301C4012821C301EC20A108B4
:1003F000031DF529C3010130C400F32000342D1181
:100400002D086700071540102D112D0867000711F2
:100410004018432A0130C400AA202108C1008430BA
:1004200041020319172AC4304102031D242A401433
:10043000C401AA202108C100843041020319242AE2
:10044000C4304102031D40144018422A2D112D08CA
:10045000670007111030A000A00B2C2A00002D11FE
:100460002D08670007150130C2000B088B13A5008B
:100470003E2025088B040230C200EC30C300E1208E
:10048000C20B3D2A082A2D112D08670007150130DF
:10049000C300EC20A108031D472A0130C300C4019A
:1004A000F320C301EC20A108031D512AC301C4019C
:1004B000F3200130C2000B088B13A5003E20250855
:1004C0008B040230C200EC30C300E120C20B632A6F
:1004D0000530C2000130C300EC20A108031D6A2AC8
:1004E0000130C3004208C400F320C301EC20A1087E
:1004F000031D752AC3014208C400F320C201013064
:10050000C300EC20A108031D7F2A0130C3001D3069
:10051000C400F3200130C300EC20A108031D8A2A87
:100520000130C300C40128210130C3004208C400C7
:100530002821C301EC20A108031D992AC3011D3005
:10054000C400F320C301EC20A108031DA22AC301AB
:10055000C4012821C3014208C400282159210A30BE
:10056000C2000B088B13A5003E2025088B045E21DA
:1005700063218A118A2C83160611831206118A11AF
:100580009C2C83160611831206158A11AB2C0130A0
:10059000C300EC20A108031DC72A0130C3001E3090
:1005A000C400F3200130C300EC20A108031DD22AAF
:1005B0000130C300C40128210130C3004008C40039
:1005C00028210130C300EC20A108031DE12A0130DD
:1005D000C3000F30C40028210130C3003308C40019
:1005E00028210130C300EC20A108031DF12A0130AD
:1005F000C3000F30C40028210130C3003408C400F8
:1006000028210130C300EC20A108031D012B01307B
:10061000C3000430C400F320C301EC20A108031D73
:100620000C2BC3011E30C400F320C301EC20A10831
:10063000031D152BC301C4012821C3014008C400B8
:100640002821C301EC20A108031D212BC3010F3079
:10065000C4002821C3013308C4002821C301EC20B1
:10066000A108031D2E2BC3010F30C4002821C30194
:100670003408C4002821C301EC20A108031D3B2B32
:10068000C3010430C400F32000340130C300EC2067
:10069000A108031D452B0130C3001F30C400F32007
:1006A0000130C300EC20A108031D502B0130C30012
:1006B0004008C40028210130C3004108C40028219B
:1006C0000130C300EC20A108031D602B0130C300E2
:1006D000C40128210130C300C40128210130C30016
:1006E000EC20A108031D6E2B0130C300C40128219A
:1006F0000130C3003608C40028210130C300EC20BB
:10070000A108031D7D2B0130C300C4012821013045
:10071000C300C40128210130C300EC20A108031D3F
:100720008B2B0130C300C40128210130C3003708DE
:10073000C40028210130C300EC20A108031D9A2B1E
:100740000130C300C40128210130C300C4012821A5
:100750000130C300EC20A108031DA82B0130C30009
:10076000C40128210130C3003808C4002821013009
:10077000C300EC20A108031DB72BC301EC20A10886
:10078000031DBD2BC3011F30C400F320C301EC20A7
:10079000A108031DC62BC3014008C4002821C301C2
:1007A0004108C4002821C301EC20A108031DD32B5C
:1007B000C301C4012821C3013908C4002821C30191
:1007C000EC20A108031DDF2BC301C4012821C301B4
:1007D000C4012821C301EC20A108031DEA2BC30199
:1007E000EC20A108031DEF2BC301C4012821C30184
:1007F0003A08C4002821C301EC20A108031DFB2BEB
:10080000C301C4012821C301C4012821C301EC2074
:10081000A108031D062CC301EC20A108031D0B2C0D
:10082000C301C4012821C3013B08C4002821C3011E
:10083000EC20A108031D172CC301C4012821C3010A
:10084000C4012821C301EC20A108031D222C00347F
:100850000130C300EC20A108031D282C0130C30087
:10086000C400F320C301EC20A108031D322CC301F6
:100870000130C400F3200034840183019F308400E0
:100880000730800020308316990022309800903085
:1008900083129800FF30AD00321281010730A000B2
:1008A000A01D5A2C07308101813084000008C03916
:1008B0000F3880006400813084000008C0392004B3
:1008C00080009F308400043080001F083839C13810
:1008D0009F008B16C0308B04813084008013632806
:1008E0000030831688008312AD102D08670087142E
:1008F0002D102D08670007148316851283128516A4
:10090000E830831689008312091483168900831244
:100910008914FF296430BC00FF30B300B4000830F4
:10092000C000FA30C2000B088B13A5003E2025083A
:100930008B04C00B912CBB2A632163210830C000BB
:10094000FA30C2000B088B13A5003E2025088B044B
:10095000C00BA02CC12A0F30B600FF30B900033005
:10096000B7000130BA000C30C000C7220130C2000D
:100970000B088B13A5003E2025088B041130C00006
:100980002830C10045230130C2000B088B13A5009D
:100990003E2025088B04282459211430C000FA3049
:1009A000C2000B088B13A5003E2025088B04C00B4A
:1009B000CF2C63211430C000FA30C2000B088B1317
:1009C000A5003E2025088B04C00BDC2C0C30C00099
:1009D000C7220130C2000B088B13A5003E2025085A
:1009E0008B040130C0002830C10045230130C20013
:1009F0000B088B13A5003E2025088B0428245E21BC
:060A00006321012D6300DB
:00000001FF
;PIC16C74A
